:107E0000F894222428C009022200010100803209CE
:107E100004000001030000000921110100012215E6
:107E200000070581034000052A864BC050C012019F
:107E3000100100000040EB0367200100000000017A
:107E400006DCFF09FBA1010902150025FF75089654
:107E500082009102C00033243394BB27DD27FEE764
:107E600044B624BEC0E6122DA9D041FE0C940000F9
:107E7000569A689412E035BE15BF10E8198329821E
:107E8000C7ED09810E76098338820068098314E002
:107E900012BF0F7D098310E119BD12E119BD19B59B
:107EA00010FFFDCF18E01B87298600E9098378942D
:107EB000FEF30985016009875E981CE0C0E67ED06C
:107EC000FFCF3C8A02E30E8B08E0098F1895A2E1F0
:107ED00008E00A8C0D920A95E1F727FD38C02030A2
:107EE00021F02F77213231F061C0353031F0393057
:107EF00049F05CC0393041F059C04C8764D04068CB
:107F00004C8754C060D052C063D06FD0EA8CFA8CDA
:107F1000AFEFAE15AF0511F4E89415C0F70113E00B
:107F200068D000E4AB8DAA2B11F458D05ED00A8C37
:107F30001A8C11E05ED032960A95A1F7F70115E090
:107F400058D011E156D04AD04CD045D02FC02E7F0A
:107F5000203811F4363009F029C0523041F0513246
:107F600049F0523251F05E9AEEE202E108C0E6E0DA
:107F700002E205C0E8E109E002C0E0E405E128D042
:107F8000801708F0802F198913FD189512FF10FF34
:107F900005C005910A8F8A95E1F71DD0198912FF56
:107FA00013FD01C0FBCF13FD189518D0098903FFFD
:107FB00018950ED00C8900620C8B1895A89508E1D5
:107FC00008831883089504D00CD005D00AD00895F2
:107FD00017EF198B08951EEF198B08951BEF198B5E
:107FE0000895198910FFFDCF0895198912FFFDCF5B
:0E7FF000089517BFE89517B710FDFDCF08954F
:0400000300007E007B
:00000001FF
